{
  "_format": "hh-sol-artifact-1",
  "contractName": "SwapERC20",
  "sourceName": "contracts/Swap.sol",
  "abi": [
    {
      "inputs": [
        {
          "internalType": "address",
          "name": "_usdcAddr",
          "type": "address"
        },
        {
          "internalType": "address",
          "name": "_wethAddr",
          "type": "address"
        },
        {
          "internalType": "address",
          "name": "_ownerFeeAddress",
          "type": "address"
        },
        {
          "internalType": "uint256",
          "name": "_ownerFeePermille",
          "type": "uint256"
        }
      ],
      "stateMutability": "nonpayable",
      "type": "constructor"
    },
    {
      "inputs": [],
      "name": "InsufficientFee",
      "type": "error"
    },
    {
      "inputs": [],
      "name": "InvalidAddress",
      "type": "error"
    },
    {
      "inputs": [],
      "name": "InvalidAmount",
      "type": "error"
    },
    {
      "inputs": [],
      "name": "InvalidState",
      "type": "error"
    },
    {
      "inputs": [],
      "name": "TransferError",
      "type": "error"
    },
    {
      "inputs": [],
      "name": "Unauthorized",
      "type": "error"
    },
    {
      "inputs": [],
      "name": "UnsupportedERC20",
      "type": "error"
    },
    {
      "anonymous": false,
      "inputs": [
        {
          "indexed": true,
          "internalType": "uint256",
          "name": "id",
          "type": "uint256"
        },
        {
          "indexed": true,
          "internalType": "address",
          "name": "buyer",
          "type": "address"
        },
        {
          "indexed": true,
          "internalType": "address",
          "name": "initiator",
          "type": "address"
        },
        {
          "indexed": false,
          "internalType": "address",
          "name": "initiatorERC20",
          "type": "address"
        },
        {
          "indexed": false,
          "internalType": "uint256",
          "name": "initiatorAmount",
          "type": "uint256"
        },
        {
          "indexed": false,
          "internalType": "address",
          "name": "counterParty",
          "type": "address"
        },
        {
          "indexed": false,
          "internalType": "uint256",
          "name": "counterPartyAmount",
          "type": "uint256"
        }
      ],
      "name": "BuyEvent",
      "type": "event"
    },
    {
      "anonymous": false,
      "inputs": [
        {
          "indexed": true,
          "internalType": "uint256",
          "name": "id",
          "type": "uint256"
        }
      ],
      "name": "Cancelled",
      "type": "event"
    },
    {
      "anonymous": false,
      "inputs": [
        {
          "indexed": true,
          "internalType": "uint256",
          "name": "id",
          "type": "uint256"
        }
      ],
      "name": "Finished",
      "type": "event"
    },
    {
      "anonymous": false,
      "inputs": [
        {
          "indexed": true,
          "internalType": "contract IERC20",
          "name": "_token",
          "type": "address"
        },
        {
          "indexed": true,
          "internalType": "bool",
          "name": "_newValue",
          "type": "bool"
        }
      ],
      "name": "NoOwnerFeeERC20Changed",
      "type": "event"
    },
    {
      "anonymous": false,
      "inputs": [
        {
          "indexed": true,
          "internalType": "uint256",
          "name": "id",
          "type": "uint256"
        },
        {
          "indexed": true,
          "internalType": "address",
          "name": "initiator",
          "type": "address"
        },
        {
          "indexed": false,
          "internalType": "address",
          "name": "initiatorERC20",
          "type": "address"
        },
        {
          "indexed": false,
          "internalType": "uint256",
          "name": "initiatorAmount",
          "type": "uint256"
        },
        {
          "indexed": false,
          "internalType": "address",
          "name": "counterParty",
          "type": "address"
        },
        {
          "indexed": false,
          "internalType": "uint256",
          "name": "counterPartyAmount",
          "type": "uint256"
        }
      ],
      "name": "OfferEvent",
      "type": "event"
    },
    {
      "anonymous": false,
      "inputs": [
        {
          "indexed": true,
          "internalType": "address",
          "name": "_address",
          "type": "address"
        }
      ],
      "name": "OwnerFeeAddressChanged",
      "type": "event"
    },
    {
      "anonymous": false,
      "inputs": [
        {
          "indexed": true,
          "internalType": "uint256",
          "name": "_feePermille",
          "type": "uint256"
        }
      ],
      "name": "OwnerFeePermilleChanged",
      "type": "event"
    },
    {
      "anonymous": false,
      "inputs": [
        {
          "indexed": true,
          "internalType": "address",
          "name": "previousOwner",
          "type": "address"
        },
        {
          "indexed": true,
          "internalType": "address",
          "name": "newOwner",
          "type": "address"
        }
      ],
      "name": "OwnershipTransferred",
      "type": "event"
    },
    {
      "anonymous": false,
      "inputs": [
        {
          "indexed": false,
          "internalType": "address",
          "name": "account",
          "type": "address"
        }
      ],
      "name": "Paused",
      "type": "event"
    },
    {
      "anonymous": false,
      "inputs": [
        {
          "indexed": false,
          "internalType": "uint256",
          "name": "id",
          "type": "uint256"
        }
      ],
      "name": "Pop",
      "type": "event"
    },
    {
      "anonymous": false,
      "inputs": [
        {
          "indexed": false,
          "internalType": "address",
          "name": "account",
          "type": "address"
        }
      ],
      "name": "Unpaused",
      "type": "event"
    },
    {
      "inputs": [
        {
          "internalType": "contract IERC20",
          "name": "_erc20",
          "type": "address"
        }
      ],
      "name": "addERC20Support",
      "outputs": [],
      "stateMutability": "nonpayable",
      "type": "function"
    },
    {
      "inputs": [
        {
          "internalType": "address",
          "name": "counterPartyERC20",
          "type": "address"
        },
        {
          "internalType": "uint256",
          "name": "counterPartyMaxAmount",
          "type": "uint256"
        },
        {
          "internalType": "address",
          "name": "initiatorERC20",
          "type": "address"
        },
        {
          "internalType": "uint256",
          "name": "initiatorAmount",
          "type": "uint256"
        }
      ],
      "name": "buy",
      "outputs": [],
      "stateMutability": "payable",
      "type": "function"
    },
    {
      "inputs": [
        {
          "internalType": "uint256",
          "name": "id",
          "type": "uint256"
        }
      ],
      "name": "cancel",
      "outputs": [],
      "stateMutability": "nonpayable",
      "type": "function"
    },
    {
      "inputs": [
        {
          "internalType": "contract IERC20",
          "name": "_token",
          "type": "address"
        },
        {
          "internalType": "bool",
          "name": "_newValue",
          "type": "bool"
        }
      ],
      "name": "changeNoOwnerFeeERC20",
      "outputs": [],
      "stateMutability": "nonpayable",
      "type": "function"
    },
    {
      "inputs": [
        {
          "internalType": "uint256",
          "name": "",
          "type": "uint256"
        }
      ],
      "name": "erc20s",
      "outputs": [
        {
          "internalType": "contract IERC20",
          "name": "",
          "type": "address"
        }
      ],
      "stateMutability": "view",
      "type": "function"
    },
    {
      "inputs": [],
      "name": "getSupportedErc20s",
      "outputs": [
        {
          "internalType": "contract IERC20[]",
          "name": "",
          "type": "address[]"
        }
      ],
      "stateMutability": "view",
      "type": "function"
    },
    {
      "inputs": [
        {
          "internalType": "address",
          "name": "initiatorERC20",
          "type": "address"
        },
        {
          "internalType": "address",
          "name": "counterPartyERC20",
          "type": "address"
        }
      ],
      "name": "getSwapRange",
      "outputs": [
        {
          "internalType": "uint256",
          "name": "min",
          "type": "uint256"
        },
        {
          "internalType": "uint256",
          "name": "max",
          "type": "uint256"
        }
      ],
      "stateMutability": "view",
      "type": "function"
    },
    {
      "inputs": [
        {
          "internalType": "uint256",
          "name": "",
          "type": "uint256"
        }
      ],
      "name": "instances",
      "outputs": [
        {
          "internalType": "uint256",
          "name": "id",
          "type": "uint256"
        },
        {
          "internalType": "address",
          "name": "initiator",
          "type": "address"
        },
        {
          "internalType": "address",
          "name": "initiatorERC20",
          "type": "address"
        },
        {
          "internalType": "uint256",
          "name": "initiatorAmount",
          "type": "uint256"
        },
        {
          "internalType": "address",
          "name": "counterPartyERC20",
          "type": "address"
        },
        {
          "internalType": "uint256",
          "name": "counterPartyAmount",
          "type": "uint256"
        },
        {
          "internalType": "uint256",
          "name": "raito",
          "type": "uint256"
        },
        {
          "internalType": "uint256",
          "name": "timestamp",
          "type": "uint256"
        },
        {
          "internalType": "enum SwapERC20.State",
          "name": "state",
          "type": "uint8"
        }
      ],
      "stateMutability": "view",
      "type": "function"
    },
    {
      "inputs": [
        {
          "internalType": "contract IERC20",
          "name": "",
          "type": "address"
        }
      ],
      "name": "noOwnerFeeERC20s",
      "outputs": [
        {
          "internalType": "bool",
          "name": "",
          "type": "bool"
        }
      ],
      "stateMutability": "view",
      "type": "function"
    },
    {
      "inputs": [
        {
          "internalType": "address",
          "name": "initiatorERC20",
          "type": "address"
        },
        {
          "internalType": "uint256",
          "name": "initiatorAmount",
          "type": "uint256"
        },
        {
          "internalType": "address",
          "name": "counterPartyERC20",
          "type": "address"
        },
        {
          "internalType": "uint256",
          "name": "counterPartyAmount",
          "type": "uint256"
        }
      ],
      "name": "offer",
      "outputs": [],
      "stateMutability": "payable",
      "type": "function"
    },
    {
      "inputs": [],
      "name": "onSellOffers",
      "outputs": [
        {
          "components": [
            {
              "internalType": "uint256",
              "name": "id",
              "type": "uint256"
            },
            {
              "internalType": "address",
              "name": "initiator",
              "type": "address"
            },
            {
              "internalType": "address",
              "name": "initiatorERC20",
              "type": "address"
            },
            {
              "internalType": "uint256",
              "name": "initiatorAmount",
              "type": "uint256"
            },
            {
              "internalType": "address",
              "name": "counterPartyERC20",
              "type": "address"
            },
            {
              "internalType": "uint256",
              "name": "counterPartyAmount",
              "type": "uint256"
            },
            {
              "internalType": "uint256",
              "name": "raito",
              "type": "uint256"
            },
            {
              "internalType": "uint256",
              "name": "timestamp",
              "type": "uint256"
            },
            {
              "internalType": "enum SwapERC20.State",
              "name": "state",
              "type": "uint8"
            }
          ],
          "internalType": "struct SwapERC20.Instance[]",
          "name": "",
          "type": "tuple[]"
        }
      ],
      "stateMutability": "view",
      "type": "function"
    },
    {
      "inputs": [],
      "name": "owner",
      "outputs": [
        {
          "internalType": "address",
          "name": "",
          "type": "address"
        }
      ],
      "stateMutability": "view",
      "type": "function"
    },
    {
      "inputs": [],
      "name": "ownerFeeAddress",
      "outputs": [
        {
          "internalType": "address",
          "name": "",
          "type": "address"
        }
      ],
      "stateMutability": "view",
      "type": "function"
    },
    {
      "inputs": [],
      "name": "ownerFeePermille",
      "outputs": [
        {
          "internalType": "uint256",
          "name": "",
          "type": "uint256"
        }
      ],
      "stateMutability": "view",
      "type": "function"
    },
    {
      "inputs": [],
      "name": "pause",
      "outputs": [],
      "stateMutability": "nonpayable",
      "type": "function"
    },
    {
      "inputs": [],
      "name": "paused",
      "outputs": [
        {
          "internalType": "bool",
          "name": "",
          "type": "bool"
        }
      ],
      "stateMutability": "view",
      "type": "function"
    },
    {
      "inputs": [],
      "name": "renounceOwnership",
      "outputs": [],
      "stateMutability": "nonpayable",
      "type": "function"
    },
    {
      "inputs": [
        {
          "internalType": "address",
          "name": "_ownerFeeAddress",
          "type": "address"
        }
      ],
      "name": "setOwnerFeeAddress",
      "outputs": [],
      "stateMutability": "nonpayable",
      "type": "function"
    },
    {
      "inputs": [
        {
          "internalType": "uint256",
          "name": "_ownerFeePermille",
          "type": "uint256"
        }
      ],
      "name": "setOwnerFeePermille",
      "outputs": [],
      "stateMutability": "nonpayable",
      "type": "function"
    },
    {
      "inputs": [
        {
          "internalType": "contract IERC20",
          "name": "",
          "type": "address"
        }
      ],
      "name": "supportedErc20s",
      "outputs": [
        {
          "internalType": "bool",
          "name": "",
          "type": "bool"
        }
      ],
      "stateMutability": "view",
      "type": "function"
    },
    {
      "inputs": [
        {
          "internalType": "address",
          "name": "newOwner",
          "type": "address"
        }
      ],
      "name": "transferOwnership",
      "outputs": [],
      "stateMutability": "nonpayable",
      "type": "function"
    },
    {
      "inputs": [],
      "name": "unpause",
      "outputs": [],
      "stateMutability": "nonpayable",
      "type": "function"
    }
  ],
  "bytecode": "0x60a0604052600c600b55620f42406080908152503480156200002057600080fd5b506040516200424938038062004249833981810160405281019062000046919062000420565b620000666200005a620002af60201b60201c565b620002b760201b60201c565b60008060146101000a81548160ff021916908315150217905550600073ffffffffffffffffffffffffffffffffffffffff168273ffffffffffffffffffffffffffffffffffffffff1603620000e7576040517fe6c4247b00000000000000000000000000000000000000000000000000000000815260040160405180910390fd5b6008849080600181540180825580915050600190039060005260206000200160009091909190916101000a81548173ffffffffffffffffffffffffffffffffffffffff021916908373ffffffffffffffffffffffffffffffffffffffff1602179055506008839080600181540180825580915050600190039060005260206000200160009091909190916101000a81548173ffffffffffffffffffffffffffffffffffffffff021916908373ffffffffffffffffffffffffffffffffffffffff1602179055506001600760008673ffffffffffffffffffffffffffffffffffffffff1673ffffffffffffffffffffffffffffffffffffffff16815260200190815260200160002060006101000a81548160ff0219169083151502179055506001600760008573ffffffffffffffffffffffffffffffffffffffff1673ffffffffffffffffffffffffffffffffffffffff16815260200190815260200160002060006101000a81548160ff02191690831515021790555081600a60006101000a81548173ffffffffffffffffffffffffffffffffffffffff021916908373ffffffffffffffffffffffffffffffffffffffff16021790555080600b819055505050505062000492565b600033905090565b60008060009054906101000a900473ffffffffffffffffffffffffffffffffffffffff169050816000806101000a81548173ffffffffffffffffffffffffffffffffffffffff021916908373ffffffffffffffffffffffffffffffffffffffff1602179055508173ffffffffffffffffffffffffffffffffffffffff168173ffffffffffffffffffffffffffffffffffffffff167f8be0079c531659141344cd1fd0a4f28419497f9722a3daafe3b4186f6b6457e060405160405180910390a35050565b600080fd5b600073ffffffffffffffffffffffffffffffffffffffff82169050919050565b6000620003ad8262000380565b9050919050565b620003bf81620003a0565b8114620003cb57600080fd5b50565b600081519050620003df81620003b4565b92915050565b6000819050919050565b620003fa81620003e5565b81146200040657600080fd5b50565b6000815190506200041a81620003ef565b92915050565b600080600080608085870312156200043d576200043c6200037b565b5b60006200044d87828801620003ce565b94505060206200046087828801620003ce565b93505060406200047387828801620003ce565b9250506060620004868782880162000409565b91505092959194509250565b608051613d94620004b560003960008181610eae01526119090152613d946000f3fe6080604052600436106101355760003560e01c80637a866938116100ab578063b3ffb7601161006f578063b3ffb760146103e9578063b5b07dca14610405578063b9d2df611461042e578063c0ea8c0514610457578063d4d86a4e14610495578063f2fde38b146104c057610135565b80637a866938146102fa5780638456cb59146103375780638da5cb5b1461034e578063a2f7b3a514610379578063a9036cf8146103be57610135565b806340e58ee5116100fd57806340e58ee51461020d5780635c975abb146102365780635dddd44d146102615780635dee77d51461029e578063666f4f16146102c7578063715018a6146102e357610135565b80630a3f6fda1461013a57806310bf4bea1461016557806313fcf0411461018e578063323f3044146101b95780633f4ba83a146101f6575b600080fd5b34801561014657600080fd5b5061014f6104e9565b60405161015c9190612fdb565b60405180910390f35b34801561017157600080fd5b5061018c6004803603810190610187919061308a565b610577565b005b34801561019a57600080fd5b506101a3610686565b6040516101b091906130d9565b60405180910390f35b3480156101c557600080fd5b506101e060048036038101906101db91906130f4565b6106ac565b6040516101ed9190613130565b60405180910390f35b34801561020257600080fd5b5061020b6106cc565b005b34801561021957600080fd5b50610234600480360381019061022f9190613181565b6106de565b005b34801561024257600080fd5b5061024b610c1f565b6040516102589190613130565b60405180910390f35b34801561026d57600080fd5b50610288600480360381019061028391906130f4565b610c35565b6040516102959190613130565b60405180910390f35b3480156102aa57600080fd5b506102c560048036038101906102c09190613181565b610c55565b005b6102e160048036038101906102dc91906131da565b610c94565b005b3480156102ef57600080fd5b506102f86113d3565b005b34801561030657600080fd5b50610321600480360381019061031c9190613181565b6113e7565b60405161032e9190613250565b60405180910390f35b34801561034357600080fd5b5061034c611426565b005b34801561035a57600080fd5b50610363611438565b60405161037091906130d9565b60405180910390f35b34801561038557600080fd5b506103a0600480360381019061039b9190613181565b611461565b6040516103b5999897969594939291906132f1565b60405180910390f35b3480156103ca57600080fd5b506103d361152c565b6040516103e09190613512565b60405180910390f35b61040360048036038101906103fe91906131da565b611738565b005b34801561041157600080fd5b5061042c60048036038101906104279190613534565b611e2d565b005b34801561043a57600080fd5b50610455600480360381019061045091906130f4565b611f44565b005b34801561046357600080fd5b5061047e60048036038101906104799190613561565b612012565b60405161048c9291906135a1565b60405180910390f35b3480156104a157600080fd5b506104aa612120565b6040516104b791906135ca565b60405180910390f35b3480156104cc57600080fd5b506104e760048036038101906104e29190613534565b612126565b005b6060600880548060200260200160405190810160405280929190818152602001828054801561056d57602002820191906000526020600020905b8160009054906101000a900473ffffffffffffffffffffffffffffffffffffffff1673ffffffffffffffffffffffffffffffffffffffff1681526020019060010190808311610523575b5050505050905090565b61057f6121a9565b600073ffffffffffffffffffffffffffffffffffffffff168273ffffffffffffffffffffffffffffffffffffffff16036105e5576040517fe6c4247b00000000000000000000000000000000000000000000000000000000815260040160405180910390fd5b80600960008473ffffffffffffffffffffffffffffffffffffffff1673ffffffffffffffffffffffffffffffffffffffff16815260200190815260200160002060006101000a81548160ff0219169083151502179055508015158273ffffffffffffffffffffffffffffffffffffffff167fdcc6206a6fb9f9ad46122337ea03788bc439fa1c7c4c143de7efdd3ffa046f5060405160405180910390a35050565b600a60009054906101000a900473ffffffffffffffffffffffffffffffffffffffff1681565b60076020528060005260406000206000915054906101000a900460ff1681565b6106d46121a9565b6106dc612227565b565b6106e6612289565b6106ee612e0d565b6000600660003373ffffffffffffffffffffffffffffffffffffffff1673ffffffffffffffffffffffffffffffffffffffff168152602001908152602001600020905060005b600280549050811015610b4f57600060028281548110610757576107566135e5565b5b9060005260206000209060090201905084816000015403610b43573373ffffffffffffffffffffffffffffffffffffffff16846020015173ffffffffffffffffffffffffffffffffffffffff16146107db576040517f82b4290000000000000000000000000000000000000000000000000000000000815260040160405180910390fd5b8060405180610120016040529081600082015481526020016001820160009054906101000a900473ffffffffffffffffffffffffffffffffffffffff1673ffffffffffffffffffffffffffffffffffffffff1673ffffffffffffffffffffffffffffffffffffffff1681526020016002820160009054906101000a900473ffffffffffffffffffffffffffffffffffffffff1673ffffffffffffffffffffffffffffffffffffffff1673ffffffffffffffffffffffffffffffffffffffff168152602001600382015481526020016004820160009054906101000a900473ffffffffffffffffffffffffffffffffffffffff1673ffffffffffffffffffffffffffffffffffffffff1673ffffffffffffffffffffffffffffffffffffffff1681526020016005820154815260200160068201548152602001600782015481526020016008820160009054906101000a900460ff1660028111156109415761094061327a565b5b60028111156109535761095261327a565b5b81525050935082819080600181540180825580915050600190039060005260206000209060090201600090919091909150600082015481600001556001820160009054906101000a900473ffffffffffffffffffffffffffffffffffffffff168160010160006101000a81548173ffffffffffffffffffffffffffffffffffffffff021916908373ffffffffffffffffffffffffffffffffffffffff1602179055506002820160009054906101000a900473ffffffffffffffffffffffffffffffffffffffff168160020160006101000a81548173ffffffffffffffffffffffffffffffffffffffff021916908373ffffffffffffffffffffffffffffffffffffffff160217905550600382015481600301556004820160009054906101000a900473ffffffffffffffffffffffffffffffffffffffff168160040160006101000a81548173ffffffffffffffffffffffffffffffffffffffff021916908373ffffffffffffffffffffffffffffffffffffffff1602179055506005820154816005015560068201548160060155600782015481600701556008820160009054906101000a900460ff168160080160006101000a81548160ff02191690836002811115610b2357610b2261327a565b5b02179055505050610b33856122d3565b610b3d3386612643565b50610b4f565b81600101915050610734565b506000826040015190508073ffffffffffffffffffffffffffffffffffffffff1663a9059cbb846020015185606001516040518363ffffffff1660e01b8152600401610b9c929190613614565b6020604051808303816000875af1158015610bbb573d6000803e3d6000fd5b505050506040513d601f19601f82011682018060405250810190610bdf9190613652565b610be857600080fd5b82600001517fc41d93b8bfbf9fd7cf5bfe271fd649ab6a6fec0ea101c23b82a2a28eca2533a960405160405180910390a250505050565b60008060149054906101000a900460ff16905090565b60096020528060005260406000206000915054906101000a900460ff1681565b610c5d6121a9565b80600b81905550807f22625641737decf3c5f81c69175c1b5965736b1d6faf1d22d1bca728d995e84a60405160405180910390a250565b610c9c612289565b6000831480610cab5750600081145b15610ce2576040517f2c5211c600000000000000000000000000000000000000000000000000000000815260040160405180910390fd5b600760008573ffffffffffffffffffffffffffffffffffffffff1673ffffffffffffffffffffffffffffffffffffffff16815260200190815260200160002060009054906101000a900460ff16610d65576040517f7ea5f6fb00000000000000000000000000000000000000000000000000000000815260040160405180910390fd5b600760008373ffffffffffffffffffffffffffffffffffffffff1673ffffffffffffffffffffffffffffffffffffffff16815260200190815260200160002060009054906101000a900460ff16610de8576040517f7ea5f6fb00000000000000000000000000000000000000000000000000000000815260040160405180910390fd5b60008490508073ffffffffffffffffffffffffffffffffffffffff166323b872dd3330876040518463ffffffff1660e01b8152600401610e2a9392919061367f565b6020604051808303816000875af1158015610e49573d6000803e3d6000fd5b505050506040513d601f19601f82011682018060405250810190610e6d9190613652565b610ea3576040517f4ffddc7c00000000000000000000000000000000000000000000000000000000815260040160405180910390fd5b6000610eea83610edc7f00000000000000000000000000000000000000000000000000000000000000008861284690919063ffffffff16565b61285c90919063ffffffff16565b9050610ef66001612872565b6000604051806101200160405280610f0e6001612888565b81526020013373ffffffffffffffffffffffffffffffffffffffff1681526020018873ffffffffffffffffffffffffffffffffffffffff1681526020018781526020018673ffffffffffffffffffffffffffffffffffffffff16815260200185815260200183815260200142815260200160006002811115610f9357610f9261327a565b5b815250905060028190806001815401808255809150506001900390600052602060002090600902016000909190919091506000820151816000015560208201518160010160006101000a81548173ffffffffffffffffffffffffffffffffffffffff021916908373ffffffffffffffffffffffffffffffffffffffff16021790555060408201518160020160006101000a81548173ffffffffffffffffffffffffffffffffffffffff021916908373ffffffffffffffffffffffffffffffffffffffff1602179055506060820151816003015560808201518160040160006101000a81548173ffffffffffffffffffffffffffffffffffffffff021916908373ffffffffffffffffffffffffffffffffffffffff16021790555060a0820151816005015560c0820151816006015560e082015181600701556101008201518160080160006101000a81548160ff021916908360028111156110f7576110f661327a565b5b02179055505050600460003373ffffffffffffffffffffffffffffffffffffffff1673ffffffffffffffffffffffffffffffffffffffff1681526020019081526020016000208190806001815401808255809150506001900390600052602060002090600902016000909190919091506000820151816000015560208201518160010160006101000a81548173ffffffffffffffffffffffffffffffffffffffff021916908373ffffffffffffffffffffffffffffffffffffffff16021790555060408201518160020160006101000a81548173ffffffffffffffffffffffffffffffffffffffff021916908373ffffffffffffffffffffffffffffffffffffffff1602179055506060820151816003015560808201518160040160006101000a81548173ffffffffffffffffffffffffffffffffffffffff021916908373ffffffffffffffffffffffffffffffffffffffff16021790555060a0820151816005015560c0820151816006015560e082015181600701556101008201518160080160006101000a81548160ff0219169083600281111561129a5761129961327a565b5b021790555050506000600360008973ffffffffffffffffffffffffffffffffffffffff1673ffffffffffffffffffffffffffffffffffffffff16815260200190815260200160002060008773ffffffffffffffffffffffffffffffffffffffff1673ffffffffffffffffffffffffffffffffffffffff16815260200190815260200160002090506000816001015414806113375750828160010154115b15611346578281600101819055505b60008160000154148061135c5750828160000154105b1561136b578281600001819055505b3373ffffffffffffffffffffffffffffffffffffffff1661138c6001612888565b7f77a5316b148a738018d89d3def979fae37da8913aac4f9552f905f45c4ff56b48a8a8a8a6040516113c194939291906136b6565b60405180910390a35050505050505050565b6113db6121a9565b6113e56000612896565b565b600881815481106113f757600080fd5b906000526020600020016000915054906101000a900473ffffffffffffffffffffffffffffffffffffffff1681565b61142e6121a9565b61143661295a565b565b60008060009054906101000a900473ffffffffffffffffffffffffffffffffffffffff16905090565b6002818154811061147157600080fd5b90600052602060002090600902016000915090508060000154908060010160009054906101000a900473ffffffffffffffffffffffffffffffffffffffff16908060020160009054906101000a900473ffffffffffffffffffffffffffffffffffffffff16908060030154908060040160009054906101000a900473ffffffffffffffffffffffffffffffffffffffff16908060050154908060060154908060070154908060080160009054906101000a900460ff16905089565b6060600460003373ffffffffffffffffffffffffffffffffffffffff1673ffffffffffffffffffffffffffffffffffffffff168152602001908152602001600020805480602002602001604051908101604052809291908181526020016000905b8282101561172f578382906000526020600020906009020160405180610120016040529081600082015481526020016001820160009054906101000a900473ffffffffffffffffffffffffffffffffffffffff1673ffffffffffffffffffffffffffffffffffffffff1673ffffffffffffffffffffffffffffffffffffffff1681526020016002820160009054906101000a900473ffffffffffffffffffffffffffffffffffffffff1673ffffffffffffffffffffffffffffffffffffffff1673ffffffffffffffffffffffffffffffffffffffff168152602001600382015481526020016004820160009054906101000a900473ffffffffffffffffffffffffffffffffffffffff1673ffffffffffffffffffffffffffffffffffffffff1673ffffffffffffffffffffffffffffffffffffffff1681526020016005820154815260200160068201548152602001600782015481526020016008820160009054906101000a900460ff16600281111561170a5761170961327a565b5b600281111561171c5761171b61327a565b5b815250508152602001906001019061158d565b50505050905090565b611740612289565b6000830361177a576040517f2c5211c600000000000000000000000000000000000000000000000000000000815260040160405180910390fd5b600760008373ffffffffffffffffffffffffffffffffffffffff1673ffffffffffffffffffffffffffffffffffffffff16815260200190815260200160002060009054906101000a900460ff166117fd576040517f7ea5f6fb00000000000000000000000000000000000000000000000000000000815260040160405180910390fd5b600760008573ffffffffffffffffffffffffffffffffffffffff1673ffffffffffffffffffffffffffffffffffffffff16815260200190815260200160002060009054906101000a900460ff16611880576040517f7ea5f6fb00000000000000000000000000000000000000000000000000000000815260040160405180910390fd5b60008473ffffffffffffffffffffffffffffffffffffffff166370a08231306040518263ffffffff1660e01b81526004016118bb91906130d9565b602060405180830381865afa1580156118d8573d6000803e3d6000fd5b505050506040513d601f19601f820116820180604052508101906118fc9190613710565b90506000611945856119377f00000000000000000000000000000000000000000000000000000000000000008661284690919063ffffffff16565b61285c90919063ffffffff16565b905060008690508073ffffffffffffffffffffffffffffffffffffffff166323b872dd3330896040518463ffffffff1660e01b81526004016119899392919061367f565b6020604051808303816000875af11580156119a8573d6000803e3d6000fd5b505050506040513d601f19601f820116820180604052508101906119cc9190613652565b611a02576040517f4ffddc7c00000000000000000000000000000000000000000000000000000000815260040160405180910390fd5b600060028054905067ffffffffffffffff811115611a2357611a2261373d565b5b604051908082528060200260200182016040528015611a515781602001602082028036833780820191505090505b509050600080600090505b600280549050811015611c9957600060028281548110611a7f57611a7e6135e5565b5b9060005260206000209060090201905060008a118015611aa3575085816006015410155b8015611ab3575080600501548a10155b15611c8d57611b0b8160010160009054906101000a900473ffffffffffffffffffffffffffffffffffffffff1682600501548d73ffffffffffffffffffffffffffffffffffffffff166129bd9092919063ffffffff16565b611b3a3382600301548b73ffffffffffffffffffffffffffffffffffffffff166129bd9092919063ffffffff16565b80600501548a611b4a919061379b565b99508060000154848481518110611b6457611b636135e5565b5b602002602001018181525050611ba281600001548260010160009054906101000a900473ffffffffffffffffffffffffffffffffffffffff16612a43565b8260010192508060010160009054906101000a900473ffffffffffffffffffffffffffffffffffffffff1673ffffffffffffffffffffffffffffffffffffffff163373ffffffffffffffffffffffffffffffffffffffff1682600001547fcc283531351f0c4fca3e39c2b448d027ed4494f6cecd724e23e241bb9ffd80ef8460020160009054906101000a900473ffffffffffffffffffffffffffffffffffffffff1685600301548660040160009054906101000a900473ffffffffffffffffffffffffffffffffffffffff168760050154604051611c8494939291906136b6565b60405180910390a45b81600101915050611a5c565b5060005b8251811015611cd457611cc9838281518110611cbc57611cbb6135e5565b5b60200260200101516122d3565b806001019050611c9d565b5060008973ffffffffffffffffffffffffffffffffffffffff166370a08231306040518263ffffffff1660e01b8152600401611d1091906130d9565b602060405180830381865afa158015611d2d573d6000803e3d6000fd5b505050506040513d601f19601f82011682018060405250810190611d519190613710565b905085811115611e215760008682611d69919061379b565b90508a73ffffffffffffffffffffffffffffffffffffffff1663a9059cbb33836040518363ffffffff1660e01b8152600401611da6929190613614565b6020604051808303816000875af1158015611dc5573d6000803e3d6000fd5b505050506040513d601f19601f82011682018060405250810190611de99190613652565b611e1f576040517f4ffddc7c00000000000000000000000000000000000000000000000000000000815260040160405180910390fd5b505b50505050505050505050565b611e356121a9565b600073ffffffffffffffffffffffffffffffffffffffff168173ffffffffffffffffffffffffffffffffffffffff1603611e9b576040517fe6c4247b00000000000000000000000000000000000000000000000000000000815260040160405180910390fd5b80600a60006101000a81548173ffffffffffffffffffffffffffffffffffffffff021916908373ffffffffffffffffffffffffffffffffffffffff160217905550600a60009054906101000a900473ffffffffffffffffffffffffffffffffffffffff1673ffffffffffffffffffffffffffffffffffffffff167f752e7174b3e8122bb4f068fbd545015def640a72769f6d7663c31914579fc77f60405160405180910390a250565b611f4c6121a9565b611f54612289565b6008819080600181540180825580915050600190039060005260206000200160009091909190916101000a81548173ffffffffffffffffffffffffffffffffffffffff021916908373ffffffffffffffffffffffffffffffffffffffff1602179055506001600760008373ffffffffffffffffffffffffffffffffffffffff1673ffffffffffffffffffffffffffffffffffffffff16815260200190815260200160002060006101000a81548160ff02191690831515021790555050565b600080600360008573ffffffffffffffffffffffffffffffffffffffff1673ffffffffffffffffffffffffffffffffffffffff16815260200190815260200160002060008473ffffffffffffffffffffffffffffffffffffffff1673ffffffffffffffffffffffffffffffffffffffff168152602001908152602001600020600101549150600360008573ffffffffffffffffffffffffffffffffffffffff1673ffffffffffffffffffffffffffffffffffffffff16815260200190815260200160002060008473ffffffffffffffffffffffffffffffffffffffff1673ffffffffffffffffffffffffffffffffffffffff1681526020019081526020016000206000015490509250929050565b600b5481565b61212e6121a9565b600073ffffffffffffffffffffffffffffffffffffffff168173ffffffffffffffffffffffffffffffffffffffff160361219d576040517f08c379a000000000000000000000000000000000000000000000000000000000815260040161219490613852565b60405180910390fd5b6121a681612896565b50565b6121b1612b27565b73ffffffffffffffffffffffffffffffffffffffff166121cf611438565b73ffffffffffffffffffffffffffffffffffffffff1614612225576040517f08c379a000000000000000000000000000000000000000000000000000000000815260040161221c906138be565b60405180910390fd5b565b61222f612b2f565b60008060146101000a81548160ff0219169083151502179055507f5db9ee0a495bf2e6ff9c91a7834c1ba4fdd244a5e8aa4e537bd38aeae4b073aa612272612b27565b60405161227f91906130d9565b60405180910390a1565b612291610c1f565b156122d1576040517f08c379a00000000000000000000000000000000000000000000000000000000081526004016122c89061392a565b60405180910390fd5b565b60005b60028054905081101561263f576000600282815481106122f9576122f86135e5565b5b90600052602060002090600902019050828160000154036126335760006002805490501115612632577fd320996d0982bef02553f275ba553eaef21cfa9420f8582324d524a406904caf8360405161235191906135ca565b60405180910390a16002600160028054905061236d919061379b565b8154811061237e5761237d6135e5565b5b9060005260206000209060090201600283815481106123a05761239f6135e5565b5b9060005260206000209060090201600082015481600001556001820160009054906101000a900473ffffffffffffffffffffffffffffffffffffffff168160010160006101000a81548173ffffffffffffffffffffffffffffffffffffffff021916908373ffffffffffffffffffffffffffffffffffffffff1602179055506002820160009054906101000a900473ffffffffffffffffffffffffffffffffffffffff168160020160006101000a81548173ffffffffffffffffffffffffffffffffffffffff021916908373ffffffffffffffffffffffffffffffffffffffff160217905550600382015481600301556004820160009054906101000a900473ffffffffffffffffffffffffffffffffffffffff168160040160006101000a81548173ffffffffffffffffffffffffffffffffffffffff021916908373ffffffffffffffffffffffffffffffffffffffff1602179055506005820154816005015560068201548160060155600782015481600701556008820160009054906101000a900460ff168160080160006101000a81548160ff0219169083600281111561254d5761254c61327a565b5b021790555090505060028054806125675761256661394a565b5b60019003818190600052602060002090600902016000808201600090556001820160006101000a81549073ffffffffffffffffffffffffffffffffffffffff02191690556002820160006101000a81549073ffffffffffffffffffffffffffffffffffffffff021916905560038201600090556004820160006101000a81549073ffffffffffffffffffffffffffffffffffffffff02191690556005820160009055600682016000905560078201600090556008820160006101000a81549060ff0219169055505090555b5b816001019150506122d6565b5050565b6000600460008473ffffffffffffffffffffffffffffffffffffffff1673ffffffffffffffffffffffffffffffffffffffff16815260200190815260200160002080549050905060005b81811015612840576000600460008673ffffffffffffffffffffffffffffffffffffffff1673ffffffffffffffffffffffffffffffffffffffff16815260200190815260200160002082815481106126e8576126e76135e5565b5b9060005260206000209060090201905083816000015414801561274057506000600281111561271a5761271961327a565b5b8160080160009054906101000a900460ff16600281111561273e5761273d61327a565b5b145b801561279b57508473ffffffffffffffffffffffffffffffffffffffff168160010160009054906101000a900473ffffffffffffffffffffffffffffffffffffffff1673ffffffffffffffffffffffffffffffffffffffff16145b1561282c576002600460008773ffffffffffffffffffffffffffffffffffffffff1673ffffffffffffffffffffffffffffffffffffffff16815260200190815260200160002083815481106127f3576127f26135e5565b5b906000526020600020906009020160080160006101000a81548160ff021916908360028111156128265761282561327a565b5b02179055505b50808061283890613979565b91505061268d565b50505050565b6000818361285491906139c1565b905092915050565b6000818361286a9190613a32565b905092915050565b6001816000016000828254019250508190555050565b600081600001549050919050565b60008060009054906101000a900473ffffffffffffffffffffffffffffffffffffffff169050816000806101000a81548173ffffffffffffffffffffffffffffffffffffffff021916908373ffffffffffffffffffffffffffffffffffffffff1602179055508173ffffffffffffffffffffffffffffffffffffffff168173ffffffffffffffffffffffffffffffffffffffff167f8be0079c531659141344cd1fd0a4f28419497f9722a3daafe3b4186f6b6457e060405160405180910390a35050565b612962612289565b6001600060146101000a81548160ff0219169083151502179055507f62e78cea01bee320cd4e420270b5ea74000d11b0c9f74754ebdbfc544b05a2586129a6612b27565b6040516129b391906130d9565b60405180910390a1565b612a3e8363a9059cbb60e01b84846040516024016129dc929190613614565b604051602081830303815290604052907bffffffffffffffffffffffffffffffffffffffffffffffffffffffff19166020820180517bffffffffffffffffffffffffffffffffffffffffffffffffffffffff8381831617835250505050612b78565b505050565b6000600460008373ffffffffffffffffffffffffffffffffffffffff1673ffffffffffffffffffffffffffffffffffffffff168152602001908152602001600020905060005b8180549050811015612b215783828281548110612aa957612aa86135e5565b5b90600052602060002090600902016000015403612b0e576001828281548110612ad557612ad46135e5565b5b906000526020600020906009020160080160006101000a81548160ff02191690836002811115612b0857612b0761327a565b5b02179055505b8080612b1990613979565b915050612a89565b50505050565b600033905090565b612b37610c1f565b612b76576040517f08c379a0000000000000000000000000000000000000000000000000000000008152600401612b6d90613aaf565b60405180910390fd5b565b6000612bda826040518060400160405280602081526020017f5361666545524332303a206c6f772d6c6576656c2063616c6c206661696c65648152508573ffffffffffffffffffffffffffffffffffffffff16612c409092919063ffffffff16565b9050600081511480612bfc575080806020019051810190612bfb9190613652565b5b612c3b576040517f08c379a0000000000000000000000000000000000000000000000000000000008152600401612c3290613b41565b60405180910390fd5b505050565b6060612c4f8484600085612c58565b90509392505050565b606082471015612c9d576040517f08c379a0000000000000000000000000000000000000000000000000000000008152600401612c9490613bd3565b60405180910390fd5b6000808673ffffffffffffffffffffffffffffffffffffffff168587604051612cc69190613c64565b60006040518083038185875af1925050503d8060008114612d03576040519150601f19603f3d011682016040523d82523d6000602084013e612d08565b606091505b5091509150612d1987838387612d25565b92505050949350505050565b60608315612d87576000835103612d7f57612d3f85612d9a565b612d7e576040517f08c379a0000000000000000000000000000000000000000000000000000000008152600401612d7590613cc7565b60405180910390fd5b5b829050612d92565b612d918383612dbd565b5b949350505050565b6000808273ffffffffffffffffffffffffffffffffffffffff163b119050919050565b600082511115612dd05781518083602001fd5b806040517f08c379a0000000000000000000000000000000000000000000000000000000008152600401612e049190613d3c565b60405180910390fd5b60405180610120016040528060008152602001600073ffffffffffffffffffffffffffffffffffffffff168152602001600073ffffffffffffffffffffffffffffffffffffffff16815260200160008152602001600073ffffffffffffffffffffffffffffffffffffffff16815260200160008152602001600081526020016000815260200160006002811115612ea757612ea661327a565b5b81525090565b600081519050919050565b600082825260208201905092915050565b6000819050602082019050919050565b600073ffffffffffffffffffffffffffffffffffffffff82169050919050565b6000819050919050565b6000612f1e612f19612f1484612ed9565b612ef9565b612ed9565b9050919050565b6000612f3082612f03565b9050919050565b6000612f4282612f25565b9050919050565b612f5281612f37565b82525050565b6000612f648383612f49565b60208301905092915050565b6000602082019050919050565b6000612f8882612ead565b612f928185612eb8565b9350612f9d83612ec9565b8060005b83811015612fce578151612fb58882612f58565b9750612fc083612f70565b925050600181019050612fa1565b5085935050505092915050565b60006020820190508181036000830152612ff58184612f7d565b905092915050565b600080fd5b600061300d82612ed9565b9050919050565b600061301f82613002565b9050919050565b61302f81613014565b811461303a57600080fd5b50565b60008135905061304c81613026565b92915050565b60008115159050919050565b61306781613052565b811461307257600080fd5b50565b6000813590506130848161305e565b92915050565b600080604083850312156130a1576130a0612ffd565b5b60006130af8582860161303d565b92505060206130c085828601613075565b9150509250929050565b6130d381613002565b82525050565b60006020820190506130ee60008301846130ca565b92915050565b60006020828403121561310a57613109612ffd565b5b60006131188482850161303d565b91505092915050565b61312a81613052565b82525050565b60006020820190506131456000830184613121565b92915050565b6000819050919050565b61315e8161314b565b811461316957600080fd5b50565b60008135905061317b81613155565b92915050565b60006020828403121561319757613196612ffd565b5b60006131a58482850161316c565b91505092915050565b6131b781613002565b81146131c257600080fd5b50565b6000813590506131d4816131ae565b92915050565b600080600080608085870312156131f4576131f3612ffd565b5b6000613202878288016131c5565b94505060206132138782880161316c565b9350506040613224878288016131c5565b92505060606132358782880161316c565b91505092959194509250565b61324a81612f37565b82525050565b60006020820190506132656000830184613241565b92915050565b6132748161314b565b82525050565b7f4e487b7100000000000000000000000000000000000000000000000000000000600052602160045260246000fd5b600381106132ba576132b961327a565b5b50565b60008190506132cb826132a9565b919050565b60006132db826132bd565b9050919050565b6132eb816132d0565b82525050565b600061012082019050613307600083018c61326b565b613314602083018b6130ca565b613321604083018a6130ca565b61332e606083018961326b565b61333b60808301886130ca565b61334860a083018761326b565b61335560c083018661326b565b61336260e083018561326b565b6133706101008301846132e2565b9a9950505050505050505050565b600081519050919050565b600082825260208201905092915050565b6000819050602082019050919050565b6133b38161314b565b82525050565b6133c281613002565b82525050565b6133d1816132d0565b82525050565b610120820160008201516133ee60008501826133aa565b50602082015161340160208501826133b9565b50604082015161341460408501826133b9565b50606082015161342760608501826133aa565b50608082015161343a60808501826133b9565b5060a082015161344d60a08501826133aa565b5060c082015161346060c08501826133aa565b5060e082015161347360e08501826133aa565b506101008201516134886101008501826133c8565b50505050565b600061349a83836133d7565b6101208301905092915050565b6000602082019050919050565b60006134bf8261337e565b6134c98185613389565b93506134d48361339a565b8060005b838110156135055781516134ec888261348e565b97506134f7836134a7565b9250506001810190506134d8565b5085935050505092915050565b6000602082019050818103600083015261352c81846134b4565b905092915050565b60006020828403121561354a57613549612ffd565b5b6000613558848285016131c5565b91505092915050565b6000806040838503121561357857613577612ffd565b5b6000613586858286016131c5565b9250506020613597858286016131c5565b9150509250929050565b60006040820190506135b6600083018561326b565b6135c3602083018461326b565b9392505050565b60006020820190506135df600083018461326b565b92915050565b7f4e487b7100000000000000000000000000000000000000000000000000000000600052603260045260246000fd5b600060408201905061362960008301856130ca565b613636602083018461326b565b9392505050565b60008151905061364c8161305e565b92915050565b60006020828403121561366857613667612ffd565b5b60006136768482850161363d565b91505092915050565b600060608201905061369460008301866130ca565b6136a160208301856130ca565b6136ae604083018461326b565b949350505050565b60006080820190506136cb60008301876130ca565b6136d8602083018661326b565b6136e560408301856130ca565b6136f2606083018461326b565b95945050505050565b60008151905061370a81613155565b92915050565b60006020828403121561372657613725612ffd565b5b6000613734848285016136fb565b91505092915050565b7f4e487b7100000000000000000000000000000000000000000000000000000000600052604160045260246000fd5b7f4e487b7100000000000000000000000000000000000000000000000000000000600052601160045260246000fd5b60006137a68261314b565b91506137b18361314b565b92508282039050818111156137c9576137c861376c565b5b92915050565b600082825260208201905092915050565b7f4f776e61626c653a206e6577206f776e657220697320746865207a65726f206160008201527f6464726573730000000000000000000000000000000000000000000000000000602082015250565b600061383c6026836137cf565b9150613847826137e0565b604082019050919050565b6000602082019050818103600083015261386b8161382f565b9050919050565b7f4f776e61626c653a2063616c6c6572206973206e6f7420746865206f776e6572600082015250565b60006138a86020836137cf565b91506138b382613872565b602082019050919050565b600060208201905081810360008301526138d78161389b565b9050919050565b7f5061757361626c653a2070617573656400000000000000000000000000000000600082015250565b60006139146010836137cf565b915061391f826138de565b602082019050919050565b6000602082019050818103600083015261394381613907565b9050919050565b7f4e487b7100000000000000000000000000000000000000000000000000000000600052603160045260246000fd5b60006139848261314b565b91507fffffffffffffffffffffffffffffffffffffffffffffffffffffffffffffffff82036139b6576139b561376c565b5b600182019050919050565b60006139cc8261314b565b91506139d78361314b565b92508282026139e58161314b565b915082820484148315176139fc576139fb61376c565b5b5092915050565b7f4e487b7100000000000000000000000000000000000000000000000000000000600052601260045260246000fd5b6000613a3d8261314b565b9150613a488361314b565b925082613a5857613a57613a03565b5b828204905092915050565b7f5061757361626c653a206e6f7420706175736564000000000000000000000000600082015250565b6000613a996014836137cf565b9150613aa482613a63565b602082019050919050565b60006020820190508181036000830152613ac881613a8c565b9050919050565b7f5361666545524332303a204552433230206f7065726174696f6e20646964206e60008201527f6f74207375636365656400000000000000000000000000000000000000000000602082015250565b6000613b2b602a836137cf565b9150613b3682613acf565b604082019050919050565b60006020820190508181036000830152613b5a81613b1e565b9050919050565b7f416464726573733a20696e73756666696369656e742062616c616e636520666f60008201527f722063616c6c0000000000000000000000000000000000000000000000000000602082015250565b6000613bbd6026836137cf565b9150613bc882613b61565b604082019050919050565b60006020820190508181036000830152613bec81613bb0565b9050919050565b600081519050919050565b600081905092915050565b60005b83811015613c27578082015181840152602081019050613c0c565b60008484015250505050565b6000613c3e82613bf3565b613c488185613bfe565b9350613c58818560208601613c09565b80840191505092915050565b6000613c708284613c33565b915081905092915050565b7f416464726573733a2063616c6c20746f206e6f6e2d636f6e7472616374000000600082015250565b6000613cb1601d836137cf565b9150613cbc82613c7b565b602082019050919050565b60006020820190508181036000830152613ce081613ca4565b9050919050565b600081519050919050565b6000601f19601f8301169050919050565b6000613d0e82613ce7565b613d1881856137cf565b9350613d28818560208601613c09565b613d3181613cf2565b840191505092915050565b60006020820190508181036000830152613d568184613d03565b90509291505056fea26469706673582212201cd51a1fd9813fb8a7c578343d4de07b060a19b620f93f206d5aa0dc5facd4d264736f6c63430008110033",
  "linkReferences": {},
  "deployedLinkReferences": {}
}