{
  "_format": "hh-sol-artifact-1",
  "contractName": "SwapERC20",
  "sourceName": "contracts/Swap.sol",
  "abi": [
    {
      "inputs": [
        {
          "internalType": "address",
          "name": "_usdcAddr",
          "type": "address"
        },
        {
          "internalType": "address",
          "name": "_wethAddr",
          "type": "address"
        },
        {
          "internalType": "address",
          "name": "_ownerFeeAddress",
          "type": "address"
        },
        {
          "internalType": "uint256",
          "name": "_ownerFeePermille",
          "type": "uint256"
        }
      ],
      "stateMutability": "nonpayable",
      "type": "constructor"
    },
    {
      "inputs": [],
      "name": "InsufficientFee",
      "type": "error"
    },
    {
      "inputs": [],
      "name": "InvalidAddress",
      "type": "error"
    },
    {
      "inputs": [],
      "name": "InvalidAmount",
      "type": "error"
    },
    {
      "inputs": [],
      "name": "InvalidState",
      "type": "error"
    },
    {
      "inputs": [],
      "name": "TransferError",
      "type": "error"
    },
    {
      "inputs": [],
      "name": "Unauthorized",
      "type": "error"
    },
    {
      "inputs": [],
      "name": "UnsupportedERC20",
      "type": "error"
    },
    {
      "anonymous": false,
      "inputs": [
        {
          "indexed": true,
          "internalType": "uint256",
          "name": "id",
          "type": "uint256"
        },
        {
          "indexed": true,
          "internalType": "address",
          "name": "counterParty",
          "type": "address"
        },
        {
          "indexed": false,
          "internalType": "address",
          "name": "initiatorERC20",
          "type": "address"
        },
        {
          "indexed": false,
          "internalType": "address",
          "name": "counterPartyERC20",
          "type": "address"
        },
        {
          "indexed": false,
          "internalType": "uint256",
          "name": "initiatorAmount",
          "type": "uint256"
        },
        {
          "indexed": false,
          "internalType": "uint256",
          "name": "counterPartyAmount",
          "type": "uint256"
        }
      ],
      "name": "BuyEvent",
      "type": "event"
    },
    {
      "anonymous": false,
      "inputs": [
        {
          "indexed": true,
          "internalType": "uint256",
          "name": "id",
          "type": "uint256"
        }
      ],
      "name": "Cancelled",
      "type": "event"
    },
    {
      "anonymous": false,
      "inputs": [
        {
          "indexed": true,
          "internalType": "uint256",
          "name": "id",
          "type": "uint256"
        }
      ],
      "name": "Finished",
      "type": "event"
    },
    {
      "anonymous": false,
      "inputs": [
        {
          "indexed": false,
          "internalType": "uint256",
          "name": "id",
          "type": "uint256"
        },
        {
          "indexed": false,
          "internalType": "uint256",
          "name": "s",
          "type": "uint256"
        },
        {
          "indexed": false,
          "internalType": "uint256",
          "name": "b",
          "type": "uint256"
        }
      ],
      "name": "InstanceEvent",
      "type": "event"
    },
    {
      "anonymous": false,
      "inputs": [
        {
          "indexed": true,
          "internalType": "contract IERC20",
          "name": "_token",
          "type": "address"
        },
        {
          "indexed": true,
          "internalType": "bool",
          "name": "_newValue",
          "type": "bool"
        }
      ],
      "name": "NoOwnerFeeERC20Changed",
      "type": "event"
    },
    {
      "anonymous": false,
      "inputs": [
        {
          "indexed": true,
          "internalType": "uint256",
          "name": "id",
          "type": "uint256"
        },
        {
          "indexed": true,
          "internalType": "address",
          "name": "initiator",
          "type": "address"
        },
        {
          "indexed": false,
          "internalType": "address",
          "name": "initiatorERC20",
          "type": "address"
        },
        {
          "indexed": false,
          "internalType": "address",
          "name": "counterPartyERC20",
          "type": "address"
        },
        {
          "indexed": false,
          "internalType": "uint256",
          "name": "initiatorAmount",
          "type": "uint256"
        },
        {
          "indexed": false,
          "internalType": "uint256",
          "name": "counterPartyAmount",
          "type": "uint256"
        }
      ],
      "name": "OfferEvent",
      "type": "event"
    },
    {
      "anonymous": false,
      "inputs": [
        {
          "indexed": true,
          "internalType": "address",
          "name": "_address",
          "type": "address"
        }
      ],
      "name": "OwnerFeeAddressChanged",
      "type": "event"
    },
    {
      "anonymous": false,
      "inputs": [
        {
          "indexed": true,
          "internalType": "uint256",
          "name": "_feePermille",
          "type": "uint256"
        }
      ],
      "name": "OwnerFeePermilleChanged",
      "type": "event"
    },
    {
      "anonymous": false,
      "inputs": [
        {
          "indexed": true,
          "internalType": "address",
          "name": "previousOwner",
          "type": "address"
        },
        {
          "indexed": true,
          "internalType": "address",
          "name": "newOwner",
          "type": "address"
        }
      ],
      "name": "OwnershipTransferred",
      "type": "event"
    },
    {
      "anonymous": false,
      "inputs": [
        {
          "indexed": false,
          "internalType": "address",
          "name": "account",
          "type": "address"
        }
      ],
      "name": "Paused",
      "type": "event"
    },
    {
      "anonymous": false,
      "inputs": [
        {
          "indexed": false,
          "internalType": "uint256",
          "name": "id",
          "type": "uint256"
        }
      ],
      "name": "Pop",
      "type": "event"
    },
    {
      "anonymous": false,
      "inputs": [
        {
          "indexed": false,
          "internalType": "uint256",
          "name": "r",
          "type": "uint256"
        }
      ],
      "name": "RaitoLog",
      "type": "event"
    },
    {
      "anonymous": false,
      "inputs": [
        {
          "indexed": false,
          "internalType": "address",
          "name": "account",
          "type": "address"
        }
      ],
      "name": "Unpaused",
      "type": "event"
    },
    {
      "inputs": [
        {
          "internalType": "contract IERC20",
          "name": "_erc20",
          "type": "address"
        }
      ],
      "name": "addERC20Support",
      "outputs": [],
      "stateMutability": "nonpayable",
      "type": "function"
    },
    {
      "inputs": [
        {
          "internalType": "address",
          "name": "counterPartyERC20",
          "type": "address"
        },
        {
          "internalType": "uint256",
          "name": "counterPartyMaxAmount",
          "type": "uint256"
        },
        {
          "internalType": "address",
          "name": "initiatorERC20",
          "type": "address"
        },
        {
          "internalType": "uint256",
          "name": "expectRaito",
          "type": "uint256"
        }
      ],
      "name": "buy",
      "outputs": [],
      "stateMutability": "payable",
      "type": "function"
    },
    {
      "inputs": [
        {
          "internalType": "uint256",
          "name": "id",
          "type": "uint256"
        }
      ],
      "name": "cancel",
      "outputs": [],
      "stateMutability": "nonpayable",
      "type": "function"
    },
    {
      "inputs": [
        {
          "internalType": "contract IERC20",
          "name": "_token",
          "type": "address"
        },
        {
          "internalType": "bool",
          "name": "_newValue",
          "type": "bool"
        }
      ],
      "name": "changeNoOwnerFeeERC20",
      "outputs": [],
      "stateMutability": "nonpayable",
      "type": "function"
    },
    {
      "inputs": [
        {
          "internalType": "uint256",
          "name": "",
          "type": "uint256"
        }
      ],
      "name": "erc20s",
      "outputs": [
        {
          "internalType": "contract IERC20",
          "name": "",
          "type": "address"
        }
      ],
      "stateMutability": "view",
      "type": "function"
    },
    {
      "inputs": [],
      "name": "getSupportedErc20s",
      "outputs": [
        {
          "internalType": "contract IERC20[]",
          "name": "",
          "type": "address[]"
        }
      ],
      "stateMutability": "view",
      "type": "function"
    },
    {
      "inputs": [
        {
          "internalType": "address",
          "name": "initiatorERC20",
          "type": "address"
        },
        {
          "internalType": "address",
          "name": "counterPartyERC20",
          "type": "address"
        }
      ],
      "name": "getSwapRange",
      "outputs": [
        {
          "internalType": "uint256",
          "name": "min",
          "type": "uint256"
        },
        {
          "internalType": "uint256",
          "name": "max",
          "type": "uint256"
        }
      ],
      "stateMutability": "view",
      "type": "function"
    },
    {
      "inputs": [
        {
          "internalType": "uint256",
          "name": "",
          "type": "uint256"
        }
      ],
      "name": "instances",
      "outputs": [
        {
          "internalType": "uint256",
          "name": "id",
          "type": "uint256"
        },
        {
          "internalType": "address",
          "name": "initiator",
          "type": "address"
        },
        {
          "internalType": "address",
          "name": "initiatorERC20",
          "type": "address"
        },
        {
          "internalType": "uint256",
          "name": "initiatorAmount",
          "type": "uint256"
        },
        {
          "internalType": "address",
          "name": "counterPartyERC20",
          "type": "address"
        },
        {
          "internalType": "uint256",
          "name": "counterPartyAmount",
          "type": "uint256"
        },
        {
          "internalType": "uint256",
          "name": "raito",
          "type": "uint256"
        },
        {
          "internalType": "enum SwapERC20.State",
          "name": "state",
          "type": "uint8"
        }
      ],
      "stateMutability": "view",
      "type": "function"
    },
    {
      "inputs": [
        {
          "internalType": "contract IERC20",
          "name": "",
          "type": "address"
        }
      ],
      "name": "noOwnerFeeERC20s",
      "outputs": [
        {
          "internalType": "bool",
          "name": "",
          "type": "bool"
        }
      ],
      "stateMutability": "view",
      "type": "function"
    },
    {
      "inputs": [
        {
          "internalType": "address",
          "name": "initiatorERC20",
          "type": "address"
        },
        {
          "internalType": "uint256",
          "name": "initiatorAmount",
          "type": "uint256"
        },
        {
          "internalType": "address",
          "name": "counterPartyERC20",
          "type": "address"
        },
        {
          "internalType": "uint256",
          "name": "counterPartyAmount",
          "type": "uint256"
        }
      ],
      "name": "offer",
      "outputs": [],
      "stateMutability": "payable",
      "type": "function"
    },
    {
      "inputs": [],
      "name": "onSellOffers",
      "outputs": [
        {
          "components": [
            {
              "internalType": "uint256",
              "name": "id",
              "type": "uint256"
            },
            {
              "internalType": "address",
              "name": "initiator",
              "type": "address"
            },
            {
              "internalType": "address",
              "name": "initiatorERC20",
              "type": "address"
            },
            {
              "internalType": "uint256",
              "name": "initiatorAmount",
              "type": "uint256"
            },
            {
              "internalType": "address",
              "name": "counterPartyERC20",
              "type": "address"
            },
            {
              "internalType": "uint256",
              "name": "counterPartyAmount",
              "type": "uint256"
            },
            {
              "internalType": "uint256",
              "name": "raito",
              "type": "uint256"
            },
            {
              "internalType": "enum SwapERC20.State",
              "name": "state",
              "type": "uint8"
            }
          ],
          "internalType": "struct SwapERC20.Instance[]",
          "name": "",
          "type": "tuple[]"
        }
      ],
      "stateMutability": "view",
      "type": "function"
    },
    {
      "inputs": [],
      "name": "owner",
      "outputs": [
        {
          "internalType": "address",
          "name": "",
          "type": "address"
        }
      ],
      "stateMutability": "view",
      "type": "function"
    },
    {
      "inputs": [],
      "name": "ownerFeeAddress",
      "outputs": [
        {
          "internalType": "address",
          "name": "",
          "type": "address"
        }
      ],
      "stateMutability": "view",
      "type": "function"
    },
    {
      "inputs": [],
      "name": "ownerFeePermille",
      "outputs": [
        {
          "internalType": "uint256",
          "name": "",
          "type": "uint256"
        }
      ],
      "stateMutability": "view",
      "type": "function"
    },
    {
      "inputs": [],
      "name": "pause",
      "outputs": [],
      "stateMutability": "nonpayable",
      "type": "function"
    },
    {
      "inputs": [],
      "name": "paused",
      "outputs": [
        {
          "internalType": "bool",
          "name": "",
          "type": "bool"
        }
      ],
      "stateMutability": "view",
      "type": "function"
    },
    {
      "inputs": [],
      "name": "renounceOwnership",
      "outputs": [],
      "stateMutability": "nonpayable",
      "type": "function"
    },
    {
      "inputs": [
        {
          "internalType": "address",
          "name": "_ownerFeeAddress",
          "type": "address"
        }
      ],
      "name": "setOwnerFeeAddress",
      "outputs": [],
      "stateMutability": "nonpayable",
      "type": "function"
    },
    {
      "inputs": [
        {
          "internalType": "uint256",
          "name": "_ownerFeePermille",
          "type": "uint256"
        }
      ],
      "name": "setOwnerFeePermille",
      "outputs": [],
      "stateMutability": "nonpayable",
      "type": "function"
    },
    {
      "inputs": [
        {
          "internalType": "contract IERC20",
          "name": "",
          "type": "address"
        }
      ],
      "name": "supportedErc20s",
      "outputs": [
        {
          "internalType": "bool",
          "name": "",
          "type": "bool"
        }
      ],
      "stateMutability": "view",
      "type": "function"
    },
    {
      "inputs": [
        {
          "internalType": "address",
          "name": "newOwner",
          "type": "address"
        }
      ],
      "name": "transferOwnership",
      "outputs": [],
      "stateMutability": "nonpayable",
      "type": "function"
    },
    {
      "inputs": [],
      "name": "unpause",
      "outputs": [],
      "stateMutability": "nonpayable",
      "type": "function"
    }
  ],
  "bytecode": "0x60a0604052600c600955620f42406080908152503480156200002057600080fd5b5060405162003d3d38038062003d3d833981810160405281019062000046919062000420565b620000666200005a620002af60201b60201c565b620002b760201b60201c565b60008060146101000a81548160ff021916908315150217905550600073ffffffffffffffffffffffffffffffffffffffff168273ffffffffffffffffffffffffffffffffffffffff1603620000e7576040517fe6c4247b00000000000000000000000000000000000000000000000000000000815260040160405180910390fd5b6006849080600181540180825580915050600190039060005260206000200160009091909190916101000a81548173ffffffffffffffffffffffffffffffffffffffff021916908373ffffffffffffffffffffffffffffffffffffffff1602179055506006839080600181540180825580915050600190039060005260206000200160009091909190916101000a81548173ffffffffffffffffffffffffffffffffffffffff021916908373ffffffffffffffffffffffffffffffffffffffff1602179055506001600560008673ffffffffffffffffffffffffffffffffffffffff1673ffffffffffffffffffffffffffffffffffffffff16815260200190815260200160002060006101000a81548160ff0219169083151502179055506001600560008573ffffffffffffffffffffffffffffffffffffffff1673ffffffffffffffffffffffffffffffffffffffff16815260200190815260200160002060006101000a81548160ff02191690831515021790555081600860006101000a81548173ffffffffffffffffffffffffffffffffffffffff021916908373ffffffffffffffffffffffffffffffffffffffff160217905550806009819055505050505062000492565b600033905090565b60008060009054906101000a900473ffffffffffffffffffffffffffffffffffffffff169050816000806101000a81548173ffffffffffffffffffffffffffffffffffffffff021916908373ffffffffffffffffffffffffffffffffffffffff1602179055508173ffffffffffffffffffffffffffffffffffffffff168173ffffffffffffffffffffffffffffffffffffffff167f8be0079c531659141344cd1fd0a4f28419497f9722a3daafe3b4186f6b6457e060405160405180910390a35050565b600080fd5b600073ffffffffffffffffffffffffffffffffffffffff82169050919050565b6000620003ad8262000380565b9050919050565b620003bf81620003a0565b8114620003cb57600080fd5b50565b600081519050620003df81620003b4565b92915050565b6000819050919050565b620003fa81620003e5565b81146200040657600080fd5b50565b6000815190506200041a81620003ef565b92915050565b600080600080608085870312156200043d576200043c6200037b565b5b60006200044d87828801620003ce565b94505060206200046087828801620003ce565b93505060406200047387828801620003ce565b9250506060620004868782880162000409565b91505092959194509250565b60805161388f620004ae6000396000610c8e015261388f6000f3fe6080604052600436106101355760003560e01c80637a866938116100ab578063b3ffb7601161006f578063b3ffb760146103e8578063b5b07dca14610404578063b9d2df611461042d578063c0ea8c0514610456578063d4d86a4e14610494578063f2fde38b146104bf57610135565b80637a866938146102fa5780638456cb59146103375780638da5cb5b1461034e578063a2f7b3a514610379578063a9036cf8146103bd57610135565b806340e58ee5116100fd57806340e58ee51461020d5780635c975abb146102365780635dddd44d146102615780635dee77d51461029e578063666f4f16146102c7578063715018a6146102e357610135565b80630a3f6fda1461013a57806310bf4bea1461016557806313fcf0411461018e578063323f3044146101b95780633f4ba83a146101f6575b600080fd5b34801561014657600080fd5b5061014f6104e8565b60405161015c9190612b08565b60405180910390f35b34801561017157600080fd5b5061018c60048036038101906101879190612bb7565b610576565b005b34801561019a57600080fd5b506101a3610685565b6040516101b09190612c06565b60405180910390f35b3480156101c557600080fd5b506101e060048036038101906101db9190612c21565b6106ab565b6040516101ed9190612c5d565b60405180910390f35b34801561020257600080fd5b5061020b6106cb565b005b34801561021957600080fd5b50610234600480360381019061022f9190612cae565b6106dd565b005b34801561024257600080fd5b5061024b6109ff565b6040516102589190612c5d565b60405180910390f35b34801561026d57600080fd5b5061028860048036038101906102839190612c21565b610a15565b6040516102959190612c5d565b60405180910390f35b3480156102aa57600080fd5b506102c560048036038101906102c09190612cae565b610a35565b005b6102e160048036038101906102dc9190612d07565b610a74565b005b3480156102ef57600080fd5b506102f8611139565b005b34801561030657600080fd5b50610321600480360381019061031c9190612cae565b61114d565b60405161032e9190612d7d565b60405180910390f35b34801561034357600080fd5b5061034c61118c565b005b34801561035a57600080fd5b5061036361119e565b6040516103709190612c06565b60405180910390f35b34801561038557600080fd5b506103a0600480360381019061039b9190612cae565b6111c7565b6040516103b4989796959493929190612e1e565b60405180910390f35b3480156103c957600080fd5b506103d261128c565b6040516103df919061301b565b60405180910390f35b61040260048036038101906103fd9190612d07565b6113fc565b005b34801561041057600080fd5b5061042b6004803603810190610426919061303d565b611a57565b005b34801561043957600080fd5b50610454600480360381019061044f9190612c21565b611b6e565b005b34801561046257600080fd5b5061047d6004803603810190610478919061306a565b611c3c565b60405161048b9291906130aa565b60405180910390f35b3480156104a057600080fd5b506104a9611d4a565b6040516104b691906130d3565b60405180910390f35b3480156104cb57600080fd5b506104e660048036038101906104e1919061303d565b611d50565b005b6060600680548060200260200160405190810160405280929190818152602001828054801561056c57602002820191906000526020600020905b8160009054906101000a900473ffffffffffffffffffffffffffffffffffffffff1673ffffffffffffffffffffffffffffffffffffffff1681526020019060010190808311610522575b5050505050905090565b61057e611dd3565b600073ffffffffffffffffffffffffffffffffffffffff168273ffffffffffffffffffffffffffffffffffffffff16036105e4576040517fe6c4247b00000000000000000000000000000000000000000000000000000000815260040160405180910390fd5b80600760008473ffffffffffffffffffffffffffffffffffffffff1673ffffffffffffffffffffffffffffffffffffffff16815260200190815260200160002060006101000a81548160ff0219169083151502179055508015158273ffffffffffffffffffffffffffffffffffffffff167fdcc6206a6fb9f9ad46122337ea03788bc439fa1c7c4c143de7efdd3ffa046f5060405160405180910390a35050565b600860009054906101000a900473ffffffffffffffffffffffffffffffffffffffff1681565b60056020528060005260406000206000915054906101000a900460ff1681565b6106d3611dd3565b6106db611e51565b565b6106e5611eb3565b6106ed612941565b60005b60028054905081101561093057600060028281548110610713576107126130ee565b5b9060005260206000209060080201905083816000015403610924573373ffffffffffffffffffffffffffffffffffffffff16836020015173ffffffffffffffffffffffffffffffffffffffff1614610797576040517f82b4290000000000000000000000000000000000000000000000000000000000815260040160405180910390fd5b8060405180610100016040529081600082015481526020016001820160009054906101000a900473ffffffffffffffffffffffffffffffffffffffff1673ffffffffffffffffffffffffffffffffffffffff1673ffffffffffffffffffffffffffffffffffffffff1681526020016002820160009054906101000a900473ffffffffffffffffffffffffffffffffffffffff1673ffffffffffffffffffffffffffffffffffffffff1673ffffffffffffffffffffffffffffffffffffffff168152602001600382015481526020016004820160009054906101000a900473ffffffffffffffffffffffffffffffffffffffff1673ffffffffffffffffffffffffffffffffffffffff1673ffffffffffffffffffffffffffffffffffffffff16815260200160058201548152602001600682015481526020016007820160009054906101000a900460ff1660028111156108f3576108f2612da7565b5b600281111561090557610904612da7565b5b81525050925061091484611efd565b61091e338561225b565b50610930565b816001019150506106f0565b506000816040015190508073ffffffffffffffffffffffffffffffffffffffff1663a9059cbb836020015184606001516040518363ffffffff1660e01b815260040161097d92919061311d565b6020604051808303816000875af115801561099c573d6000803e3d6000fd5b505050506040513d601f19601f820116820180604052508101906109c0919061315b565b6109c957600080fd5b81600001517fc41d93b8bfbf9fd7cf5bfe271fd649ab6a6fec0ea101c23b82a2a28eca2533a960405160405180910390a2505050565b60008060149054906101000a900460ff16905090565b60076020528060005260406000206000915054906101000a900460ff1681565b610a3d611dd3565b80600981905550807f22625641737decf3c5f81c69175c1b5965736b1d6faf1d22d1bca728d995e84a60405160405180910390a250565b610a7c611eb3565b6000831480610a8b5750600081145b15610ac2576040517f2c5211c600000000000000000000000000000000000000000000000000000000815260040160405180910390fd5b600560008573ffffffffffffffffffffffffffffffffffffffff1673ffffffffffffffffffffffffffffffffffffffff16815260200190815260200160002060009054906101000a900460ff16610b45576040517f7ea5f6fb00000000000000000000000000000000000000000000000000000000815260040160405180910390fd5b600560008373ffffffffffffffffffffffffffffffffffffffff1673ffffffffffffffffffffffffffffffffffffffff16815260200190815260200160002060009054906101000a900460ff16610bc8576040517f7ea5f6fb00000000000000000000000000000000000000000000000000000000815260040160405180910390fd5b60008490508073ffffffffffffffffffffffffffffffffffffffff166323b872dd3330876040518463ffffffff1660e01b8152600401610c0a93929190613188565b6020604051808303816000875af1158015610c29573d6000803e3d6000fd5b505050506040513d601f19601f82011682018060405250810190610c4d919061315b565b610c83576040517f4ffddc7c00000000000000000000000000000000000000000000000000000000815260040160405180910390fd5b6000610cca83610cbc7f00000000000000000000000000000000000000000000000000000000000000008861245e90919063ffffffff16565b61247490919063ffffffff16565b9050610cd6600161248a565b6000604051806101000160405280610cee60016124a0565b81526020013373ffffffffffffffffffffffffffffffffffffffff1681526020018873ffffffffffffffffffffffffffffffffffffffff1681526020018781526020018673ffffffffffffffffffffffffffffffffffffffff16815260200185815260200183815260200160006002811115610d6d57610d6c612da7565b5b815250905060028190806001815401808255809150506001900390600052602060002090600802016000909190919091506000820151816000015560208201518160010160006101000a81548173ffffffffffffffffffffffffffffffffffffffff021916908373ffffffffffffffffffffffffffffffffffffffff16021790555060408201518160020160006101000a81548173ffffffffffffffffffffffffffffffffffffffff021916908373ffffffffffffffffffffffffffffffffffffffff1602179055506060820151816003015560808201518160040160006101000a81548173ffffffffffffffffffffffffffffffffffffffff021916908373ffffffffffffffffffffffffffffffffffffffff16021790555060a0820151816005015560c0820151816006015560e08201518160070160006101000a81548160ff02191690836002811115610ec657610ec5612da7565b5b02179055505050600460003373ffffffffffffffffffffffffffffffffffffffff1673ffffffffffffffffffffffffffffffffffffffff1681526020019081526020016000208190806001815401808255809150506001900390600052602060002090600802016000909190919091506000820151816000015560208201518160010160006101000a81548173ffffffffffffffffffffffffffffffffffffffff021916908373ffffffffffffffffffffffffffffffffffffffff16021790555060408201518160020160006101000a81548173ffffffffffffffffffffffffffffffffffffffff021916908373ffffffffffffffffffffffffffffffffffffffff1602179055506060820151816003015560808201518160040160006101000a81548173ffffffffffffffffffffffffffffffffffffffff021916908373ffffffffffffffffffffffffffffffffffffffff16021790555060a0820151816005015560c0820151816006015560e08201518160070160006101000a81548160ff0219169083600281111561105e5761105d612da7565b5b021790555050506000600360008973ffffffffffffffffffffffffffffffffffffffff1673ffffffffffffffffffffffffffffffffffffffff16815260200190815260200160002060008773ffffffffffffffffffffffffffffffffffffffff1673ffffffffffffffffffffffffffffffffffffffff16815260200190815260200160002090506000816001015414806110fb5750828160010154115b1561110a578281600101819055505b6000816000015414806111205750828160000154105b1561112f578281600001819055505b5050505050505050565b611141611dd3565b61114b60006124ae565b565b6006818154811061115d57600080fd5b906000526020600020016000915054906101000a900473ffffffffffffffffffffffffffffffffffffffff1681565b611194611dd3565b61119c612572565b565b60008060009054906101000a900473ffffffffffffffffffffffffffffffffffffffff16905090565b600281815481106111d757600080fd5b90600052602060002090600802016000915090508060000154908060010160009054906101000a900473ffffffffffffffffffffffffffffffffffffffff16908060020160009054906101000a900473ffffffffffffffffffffffffffffffffffffffff16908060030154908060040160009054906101000a900473ffffffffffffffffffffffffffffffffffffffff16908060050154908060060154908060070160009054906101000a900460ff16905088565b60606000600460003373ffffffffffffffffffffffffffffffffffffffff1673ffffffffffffffffffffffffffffffffffffffff16815260200190815260200160002080549050905060606000805b838110156113f2576000600460003373ffffffffffffffffffffffffffffffffffffffff1673ffffffffffffffffffffffffffffffffffffffff1681526020019081526020016000208281548110611336576113356130ee565b5b906000526020600020906008020190503373ffffffffffffffffffffffffffffffffffffffff168160010160009054906101000a900473ffffffffffffffffffffffffffffffffffffffff1673ffffffffffffffffffffffffffffffffffffffff161480156113da5750600060028111156113b4576113b3612da7565b5b8160070160009054906101000a900460ff1660028111156113d8576113d7612da7565b5b145b156113ec578260010192508160010191505b506112db565b5081935050505090565b611404611eb3565b6000830361143e576040517f2c5211c600000000000000000000000000000000000000000000000000000000815260040160405180910390fd5b600560008373ffffffffffffffffffffffffffffffffffffffff1673ffffffffffffffffffffffffffffffffffffffff16815260200190815260200160002060009054906101000a900460ff166114c1576040517f7ea5f6fb00000000000000000000000000000000000000000000000000000000815260040160405180910390fd5b600560008573ffffffffffffffffffffffffffffffffffffffff1673ffffffffffffffffffffffffffffffffffffffff16815260200190815260200160002060009054906101000a900460ff16611544576040517f7ea5f6fb00000000000000000000000000000000000000000000000000000000815260040160405180910390fd5b60008473ffffffffffffffffffffffffffffffffffffffff166370a08231306040518263ffffffff1660e01b815260040161157f9190612c06565b602060405180830381865afa15801561159c573d6000803e3d6000fd5b505050506040513d601f19601f820116820180604052508101906115c091906131d4565b905060008590508073ffffffffffffffffffffffffffffffffffffffff166323b872dd3330886040518463ffffffff1660e01b815260040161160493929190613188565b6020604051808303816000875af1158015611623573d6000803e3d6000fd5b505050506040513d601f19601f82011682018060405250810190611647919061315b565b61167d576040517f4ffddc7c00000000000000000000000000000000000000000000000000000000815260040160405180910390fd5b600060028054905067ffffffffffffffff81111561169e5761169d613201565b5b6040519080825280602002602001820160405280156116cc5781602001602082028036833780820191505090505b509050600080600090505b6002805490508110156118c4576000600282815481106116fa576116f96130ee565b5b9060005260206000209060080201905060008911801561171e575086816006015410155b801561172d5750806005015489115b156118b8576117858160010160009054906101000a900473ffffffffffffffffffffffffffffffffffffffff1682600501548c73ffffffffffffffffffffffffffffffffffffffff166125d59092919063ffffffff16565b7fdf511d05c2ed0e1e84c0b56529cdd28804be132f2981760bb0a7048309ba346e8160000154826003015483600501546040516117c493929190613230565b60405180910390a18060050154896117dc9190613296565b985080600001548484815181106117f6576117f56130ee565b5b6020026020010181815250506001600460008360010160009054906101000a900473ffffffffffffffffffffffffffffffffffffffff1673ffffffffffffffffffffffffffffffffffffffff1673ffffffffffffffffffffffffffffffffffffffff1681526020019081526020016000208381548110611879576118786130ee565b5b906000526020600020906008020160070160006101000a81548160ff021916908360028111156118ac576118ab612da7565b5b02179055508260010192505b816001019150506116d7565b5060005b82518110156118ff576118f48382815181106118e7576118e66130ee565b5b6020026020010151611efd565b8060010190506118c8565b5060008873ffffffffffffffffffffffffffffffffffffffff166370a08231306040518263ffffffff1660e01b815260040161193b9190612c06565b602060405180830381865afa158015611958573d6000803e3d6000fd5b505050506040513d601f19601f8201168201806040525081019061197c91906131d4565b905084811115611a4c57600085826119949190613296565b90508973ffffffffffffffffffffffffffffffffffffffff1663a9059cbb33836040518363ffffffff1660e01b81526004016119d192919061311d565b6020604051808303816000875af11580156119f0573d6000803e3d6000fd5b505050506040513d601f19601f82011682018060405250810190611a14919061315b565b611a4a576040517f4ffddc7c00000000000000000000000000000000000000000000000000000000815260040160405180910390fd5b505b505050505050505050565b611a5f611dd3565b600073ffffffffffffffffffffffffffffffffffffffff168173ffffffffffffffffffffffffffffffffffffffff1603611ac5576040517fe6c4247b00000000000000000000000000000000000000000000000000000000815260040160405180910390fd5b80600860006101000a81548173ffffffffffffffffffffffffffffffffffffffff021916908373ffffffffffffffffffffffffffffffffffffffff160217905550600860009054906101000a900473ffffffffffffffffffffffffffffffffffffffff1673ffffffffffffffffffffffffffffffffffffffff167f752e7174b3e8122bb4f068fbd545015def640a72769f6d7663c31914579fc77f60405160405180910390a250565b611b76611dd3565b611b7e611eb3565b6006819080600181540180825580915050600190039060005260206000200160009091909190916101000a81548173ffffffffffffffffffffffffffffffffffffffff021916908373ffffffffffffffffffffffffffffffffffffffff1602179055506001600560008373ffffffffffffffffffffffffffffffffffffffff1673ffffffffffffffffffffffffffffffffffffffff16815260200190815260200160002060006101000a81548160ff02191690831515021790555050565b600080600360008573ffffffffffffffffffffffffffffffffffffffff1673ffffffffffffffffffffffffffffffffffffffff16815260200190815260200160002060008473ffffffffffffffffffffffffffffffffffffffff1673ffffffffffffffffffffffffffffffffffffffff168152602001908152602001600020600101549150600360008573ffffffffffffffffffffffffffffffffffffffff1673ffffffffffffffffffffffffffffffffffffffff16815260200190815260200160002060008473ffffffffffffffffffffffffffffffffffffffff1673ffffffffffffffffffffffffffffffffffffffff1681526020019081526020016000206000015490509250929050565b60095481565b611d58611dd3565b600073ffffffffffffffffffffffffffffffffffffffff168173ffffffffffffffffffffffffffffffffffffffff1603611dc7576040517f08c379a0000000000000000000000000000000000000000000000000000000008152600401611dbe9061334d565b60405180910390fd5b611dd0816124ae565b50565b611ddb61265b565b73ffffffffffffffffffffffffffffffffffffffff16611df961119e565b73ffffffffffffffffffffffffffffffffffffffff1614611e4f576040517f08c379a0000000000000000000000000000000000000000000000000000000008152600401611e46906133b9565b60405180910390fd5b565b611e59612663565b60008060146101000a81548160ff0219169083151502179055507f5db9ee0a495bf2e6ff9c91a7834c1ba4fdd244a5e8aa4e537bd38aeae4b073aa611e9c61265b565b604051611ea99190612c06565b60405180910390a1565b611ebb6109ff565b15611efb576040517f08c379a0000000000000000000000000000000000000000000000000000000008152600401611ef290613425565b60405180910390fd5b565b60005b60028054905081101561225757600060028281548110611f2357611f226130ee565b5b906000526020600020906008020190508281600001540361224b57600060028054905011156122135760026001600280549050611f609190613296565b81548110611f7157611f706130ee565b5b906000526020600020906008020160028381548110611f9357611f926130ee565b5b9060005260206000209060080201600082015481600001556001820160009054906101000a900473ffffffffffffffffffffffffffffffffffffffff168160010160006101000a81548173ffffffffffffffffffffffffffffffffffffffff021916908373ffffffffffffffffffffffffffffffffffffffff1602179055506002820160009054906101000a900473ffffffffffffffffffffffffffffffffffffffff168160020160006101000a81548173ffffffffffffffffffffffffffffffffffffffff021916908373ffffffffffffffffffffffffffffffffffffffff160217905550600382015481600301556004820160009054906101000a900473ffffffffffffffffffffffffffffffffffffffff168160040160006101000a81548173ffffffffffffffffffffffffffffffffffffffff021916908373ffffffffffffffffffffffffffffffffffffffff16021790555060058201548160050155600682015481600601556007820160009054906101000a900460ff168160070160006101000a81548160ff0219169083600281111561213657612135612da7565b5b021790555090505060028054806121505761214f613445565b5b60019003818190600052602060002090600802016000808201600090556001820160006101000a81549073ffffffffffffffffffffffffffffffffffffffff02191690556002820160006101000a81549073ffffffffffffffffffffffffffffffffffffffff021916905560038201600090556004820160006101000a81549073ffffffffffffffffffffffffffffffffffffffff0219169055600582016000905560068201600090556007820160006101000a81549060ff0219169055505090555b7fd320996d0982bef02553f275ba553eaef21cfa9420f8582324d524a406904caf8360405161224291906130d3565b60405180910390a15b81600101915050611f00565b5050565b6000600460008473ffffffffffffffffffffffffffffffffffffffff1673ffffffffffffffffffffffffffffffffffffffff16815260200190815260200160002080549050905060005b81811015612458576000600460008673ffffffffffffffffffffffffffffffffffffffff1673ffffffffffffffffffffffffffffffffffffffff1681526020019081526020016000208281548110612300576122ff6130ee565b5b9060005260206000209060080201905083816000015414801561235857506000600281111561233257612331612da7565b5b8160070160009054906101000a900460ff16600281111561235657612355612da7565b5b145b80156123b357508473ffffffffffffffffffffffffffffffffffffffff168160010160009054906101000a900473ffffffffffffffffffffffffffffffffffffffff1673ffffffffffffffffffffffffffffffffffffffff16145b15612444576002600460008773ffffffffffffffffffffffffffffffffffffffff1673ffffffffffffffffffffffffffffffffffffffff168152602001908152602001600020838154811061240b5761240a6130ee565b5b906000526020600020906008020160070160006101000a81548160ff0219169083600281111561243e5761243d612da7565b5b02179055505b50808061245090613474565b9150506122a5565b50505050565b6000818361246c91906134bc565b905092915050565b60008183612482919061352d565b905092915050565b6001816000016000828254019250508190555050565b600081600001549050919050565b60008060009054906101000a900473ffffffffffffffffffffffffffffffffffffffff169050816000806101000a81548173ffffffffffffffffffffffffffffffffffffffff021916908373ffffffffffffffffffffffffffffffffffffffff1602179055508173ffffffffffffffffffffffffffffffffffffffff168173ffffffffffffffffffffffffffffffffffffffff167f8be0079c531659141344cd1fd0a4f28419497f9722a3daafe3b4186f6b6457e060405160405180910390a35050565b61257a611eb3565b6001600060146101000a81548160ff0219169083151502179055507f62e78cea01bee320cd4e420270b5ea74000d11b0c9f74754ebdbfc544b05a2586125be61265b565b6040516125cb9190612c06565b60405180910390a1565b6126568363a9059cbb60e01b84846040516024016125f492919061311d565b604051602081830303815290604052907bffffffffffffffffffffffffffffffffffffffffffffffffffffffff19166020820180517bffffffffffffffffffffffffffffffffffffffffffffffffffffffff83818316178352505050506126ac565b505050565b600033905090565b61266b6109ff565b6126aa576040517f08c379a00000000000000000000000000000000000000000000000000000000081526004016126a1906135aa565b60405180910390fd5b565b600061270e826040518060400160405280602081526020017f5361666545524332303a206c6f772d6c6576656c2063616c6c206661696c65648152508573ffffffffffffffffffffffffffffffffffffffff166127749092919063ffffffff16565b905060008151148061273057508080602001905181019061272f919061315b565b5b61276f576040517f08c379a00000000000000000000000000000000000000000000000000000000081526004016127669061363c565b60405180910390fd5b505050565b6060612783848460008561278c565b90509392505050565b6060824710156127d1576040517f08c379a00000000000000000000000000000000000000000000000000000000081526004016127c8906136ce565b60405180910390fd5b6000808673ffffffffffffffffffffffffffffffffffffffff1685876040516127fa919061375f565b60006040518083038185875af1925050503d8060008114612837576040519150601f19603f3d011682016040523d82523d6000602084013e61283c565b606091505b509150915061284d87838387612859565b92505050949350505050565b606083156128bb5760008351036128b357612873856128ce565b6128b2576040517f08c379a00000000000000000000000000000000000000000000000000000000081526004016128a9906137c2565b60405180910390fd5b5b8290506128c6565b6128c583836128f1565b5b949350505050565b6000808273ffffffffffffffffffffffffffffffffffffffff163b119050919050565b6000825111156129045781518083602001fd5b806040517f08c379a00000000000000000000000000000000000000000000000000000000081526004016129389190613837565b60405180910390fd5b60405180610100016040528060008152602001600073ffffffffffffffffffffffffffffffffffffffff168152602001600073ffffffffffffffffffffffffffffffffffffffff16815260200160008152602001600073ffffffffffffffffffffffffffffffffffffffff1681526020016000815260200160008152602001600060028111156129d4576129d3612da7565b5b81525090565b600081519050919050565b600082825260208201905092915050565b6000819050602082019050919050565b600073ffffffffffffffffffffffffffffffffffffffff82169050919050565b6000819050919050565b6000612a4b612a46612a4184612a06565b612a26565b612a06565b9050919050565b6000612a5d82612a30565b9050919050565b6000612a6f82612a52565b9050919050565b612a7f81612a64565b82525050565b6000612a918383612a76565b60208301905092915050565b6000602082019050919050565b6000612ab5826129da565b612abf81856129e5565b9350612aca836129f6565b8060005b83811015612afb578151612ae28882612a85565b9750612aed83612a9d565b925050600181019050612ace565b5085935050505092915050565b60006020820190508181036000830152612b228184612aaa565b905092915050565b600080fd5b6000612b3a82612a06565b9050919050565b6000612b4c82612b2f565b9050919050565b612b5c81612b41565b8114612b6757600080fd5b50565b600081359050612b7981612b53565b92915050565b60008115159050919050565b612b9481612b7f565b8114612b9f57600080fd5b50565b600081359050612bb181612b8b565b92915050565b60008060408385031215612bce57612bcd612b2a565b5b6000612bdc85828601612b6a565b9250506020612bed85828601612ba2565b9150509250929050565b612c0081612b2f565b82525050565b6000602082019050612c1b6000830184612bf7565b92915050565b600060208284031215612c3757612c36612b2a565b5b6000612c4584828501612b6a565b91505092915050565b612c5781612b7f565b82525050565b6000602082019050612c726000830184612c4e565b92915050565b6000819050919050565b612c8b81612c78565b8114612c9657600080fd5b50565b600081359050612ca881612c82565b92915050565b600060208284031215612cc457612cc3612b2a565b5b6000612cd284828501612c99565b91505092915050565b612ce481612b2f565b8114612cef57600080fd5b50565b600081359050612d0181612cdb565b92915050565b60008060008060808587031215612d2157612d20612b2a565b5b6000612d2f87828801612cf2565b9450506020612d4087828801612c99565b9350506040612d5187828801612cf2565b9250506060612d6287828801612c99565b91505092959194509250565b612d7781612a64565b82525050565b6000602082019050612d926000830184612d6e565b92915050565b612da181612c78565b82525050565b7f4e487b7100000000000000000000000000000000000000000000000000000000600052602160045260246000fd5b60038110612de757612de6612da7565b5b50565b6000819050612df882612dd6565b919050565b6000612e0882612dea565b9050919050565b612e1881612dfd565b82525050565b600061010082019050612e34600083018b612d98565b612e41602083018a612bf7565b612e4e6040830189612bf7565b612e5b6060830188612d98565b612e686080830187612bf7565b612e7560a0830186612d98565b612e8260c0830185612d98565b612e8f60e0830184612e0f565b9998505050505050505050565b600081519050919050565b600082825260208201905092915050565b6000819050602082019050919050565b612ed181612c78565b82525050565b612ee081612b2f565b82525050565b612eef81612dfd565b82525050565b61010082016000820151612f0c6000850182612ec8565b506020820151612f1f6020850182612ed7565b506040820151612f326040850182612ed7565b506060820151612f456060850182612ec8565b506080820151612f586080850182612ed7565b5060a0820151612f6b60a0850182612ec8565b5060c0820151612f7e60c0850182612ec8565b5060e0820151612f9160e0850182612ee6565b50505050565b6000612fa38383612ef5565b6101008301905092915050565b6000602082019050919050565b6000612fc882612e9c565b612fd28185612ea7565b9350612fdd83612eb8565b8060005b8381101561300e578151612ff58882612f97565b975061300083612fb0565b925050600181019050612fe1565b5085935050505092915050565b600060208201905081810360008301526130358184612fbd565b905092915050565b60006020828403121561305357613052612b2a565b5b600061306184828501612cf2565b91505092915050565b6000806040838503121561308157613080612b2a565b5b600061308f85828601612cf2565b92505060206130a085828601612cf2565b9150509250929050565b60006040820190506130bf6000830185612d98565b6130cc6020830184612d98565b9392505050565b60006020820190506130e86000830184612d98565b92915050565b7f4e487b7100000000000000000000000000000000000000000000000000000000600052603260045260246000fd5b60006040820190506131326000830185612bf7565b61313f6020830184612d98565b9392505050565b60008151905061315581612b8b565b92915050565b60006020828403121561317157613170612b2a565b5b600061317f84828501613146565b91505092915050565b600060608201905061319d6000830186612bf7565b6131aa6020830185612bf7565b6131b76040830184612d98565b949350505050565b6000815190506131ce81612c82565b92915050565b6000602082840312156131ea576131e9612b2a565b5b60006131f8848285016131bf565b91505092915050565b7f4e487b7100000000000000000000000000000000000000000000000000000000600052604160045260246000fd5b60006060820190506132456000830186612d98565b6132526020830185612d98565b61325f6040830184612d98565b949350505050565b7f4e487b7100000000000000000000000000000000000000000000000000000000600052601160045260246000fd5b60006132a182612c78565b91506132ac83612c78565b92508282039050818111156132c4576132c3613267565b5b92915050565b600082825260208201905092915050565b7f4f776e61626c653a206e6577206f776e657220697320746865207a65726f206160008201527f6464726573730000000000000000000000000000000000000000000000000000602082015250565b60006133376026836132ca565b9150613342826132db565b604082019050919050565b600060208201905081810360008301526133668161332a565b9050919050565b7f4f776e61626c653a2063616c6c6572206973206e6f7420746865206f776e6572600082015250565b60006133a36020836132ca565b91506133ae8261336d565b602082019050919050565b600060208201905081810360008301526133d281613396565b9050919050565b7f5061757361626c653a2070617573656400000000000000000000000000000000600082015250565b600061340f6010836132ca565b915061341a826133d9565b602082019050919050565b6000602082019050818103600083015261343e81613402565b9050919050565b7f4e487b7100000000000000000000000000000000000000000000000000000000600052603160045260246000fd5b600061347f82612c78565b91507fffffffffffffffffffffffffffffffffffffffffffffffffffffffffffffffff82036134b1576134b0613267565b5b600182019050919050565b60006134c782612c78565b91506134d283612c78565b92508282026134e081612c78565b915082820484148315176134f7576134f6613267565b5b5092915050565b7f4e487b7100000000000000000000000000000000000000000000000000000000600052601260045260246000fd5b600061353882612c78565b915061354383612c78565b925082613553576135526134fe565b5b828204905092915050565b7f5061757361626c653a206e6f7420706175736564000000000000000000000000600082015250565b60006135946014836132ca565b915061359f8261355e565b602082019050919050565b600060208201905081810360008301526135c381613587565b9050919050565b7f5361666545524332303a204552433230206f7065726174696f6e20646964206e60008201527f6f74207375636365656400000000000000000000000000000000000000000000602082015250565b6000613626602a836132ca565b9150613631826135ca565b604082019050919050565b6000602082019050818103600083015261365581613619565b9050919050565b7f416464726573733a20696e73756666696369656e742062616c616e636520666f60008201527f722063616c6c0000000000000000000000000000000000000000000000000000602082015250565b60006136b86026836132ca565b91506136c38261365c565b604082019050919050565b600060208201905081810360008301526136e7816136ab565b9050919050565b600081519050919050565b600081905092915050565b60005b83811015613722578082015181840152602081019050613707565b60008484015250505050565b6000613739826136ee565b61374381856136f9565b9350613753818560208601613704565b80840191505092915050565b600061376b828461372e565b915081905092915050565b7f416464726573733a2063616c6c20746f206e6f6e2d636f6e7472616374000000600082015250565b60006137ac601d836132ca565b91506137b782613776565b602082019050919050565b600060208201905081810360008301526137db8161379f565b9050919050565b600081519050919050565b6000601f19601f8301169050919050565b6000613809826137e2565b61381381856132ca565b9350613823818560208601613704565b61382c816137ed565b840191505092915050565b6000602082019050818103600083015261385181846137fe565b90509291505056fea2646970667358221220a2c659a62a9e32d6a5ad791520baa5709ba4ad4faecbfc515a55be3cb3d1ce1b64736f6c63430008110033",
  "linkReferences": {},
  "deployedLinkReferences": {}
}